{
  "_format": "hh-sol-artifact-1",
  "contractName": "RDTnft",
  "sourceName": "contracts/RDTnft.sol",
  "abi": [
    {
      "inputs": [
        {
          "internalType": "address",
          "name": "addr",
          "type": "address"
        }
      ],
      "stateMutability": "nonpayable",
      "type": "constructor"
    },
    {
      "anonymous": false,
      "inputs": [
        {
          "indexed": true,
          "internalType": "address",
          "name": "owner",
          "type": "address"
        },
        {
          "indexed": true,
          "internalType": "address",
          "name": "approved",
          "type": "address"
        },
        {
          "indexed": true,
          "internalType": "uint256",
          "name": "tokenId",
          "type": "uint256"
        }
      ],
      "name": "Approval",
      "type": "event"
    },
    {
      "anonymous": false,
      "inputs": [
        {
          "indexed": true,
          "internalType": "address",
          "name": "owner",
          "type": "address"
        },
        {
          "indexed": true,
          "internalType": "address",
          "name": "operator",
          "type": "address"
        },
        {
          "indexed": false,
          "internalType": "bool",
          "name": "approved",
          "type": "bool"
        }
      ],
      "name": "ApprovalForAll",
      "type": "event"
    },
    {
      "anonymous": false,
      "inputs": [
        {
          "indexed": true,
          "internalType": "address",
          "name": "previousOwner",
          "type": "address"
        },
        {
          "indexed": true,
          "internalType": "address",
          "name": "newOwner",
          "type": "address"
        }
      ],
      "name": "OwnershipTransferred",
      "type": "event"
    },
    {
      "anonymous": false,
      "inputs": [
        {
          "indexed": true,
          "internalType": "address",
          "name": "from",
          "type": "address"
        },
        {
          "indexed": true,
          "internalType": "address",
          "name": "to",
          "type": "address"
        },
        {
          "indexed": true,
          "internalType": "uint256",
          "name": "tokenId",
          "type": "uint256"
        }
      ],
      "name": "Transfer",
      "type": "event"
    },
    {
      "anonymous": false,
      "inputs": [
        {
          "indexed": false,
          "internalType": "uint256",
          "name": "",
          "type": "uint256"
        }
      ],
      "name": "balance",
      "type": "event"
    },
    {
      "inputs": [
        {
          "internalType": "address",
          "name": "to",
          "type": "address"
        },
        {
          "internalType": "uint256",
          "name": "tokenId",
          "type": "uint256"
        }
      ],
      "name": "approve",
      "outputs": [],
      "stateMutability": "nonpayable",
      "type": "function"
    },
    {
      "inputs": [
        {
          "internalType": "address",
          "name": "owner",
          "type": "address"
        }
      ],
      "name": "balanceOf",
      "outputs": [
        {
          "internalType": "uint256",
          "name": "",
          "type": "uint256"
        }
      ],
      "stateMutability": "view",
      "type": "function"
    },
    {
      "inputs": [
        {
          "internalType": "address",
          "name": "to",
          "type": "address"
        },
        {
          "internalType": "uint256",
          "name": "tokenId",
          "type": "uint256"
        }
      ],
      "name": "buyNft",
      "outputs": [],
      "stateMutability": "payable",
      "type": "function"
    },
    {
      "inputs": [
        {
          "internalType": "address",
          "name": "to",
          "type": "address"
        },
        {
          "internalType": "uint256",
          "name": "tokenId",
          "type": "uint256"
        }
      ],
      "name": "buyNftByToken",
      "outputs": [],
      "stateMutability": "nonpayable",
      "type": "function"
    },
    {
      "inputs": [],
      "name": "from",
      "outputs": [
        {
          "internalType": "address",
          "name": "",
          "type": "address"
        }
      ],
      "stateMutability": "view",
      "type": "function"
    },
    {
      "inputs": [
        {
          "internalType": "uint256",
          "name": "tokenId",
          "type": "uint256"
        }
      ],
      "name": "getApproved",
      "outputs": [
        {
          "internalType": "address",
          "name": "",
          "type": "address"
        }
      ],
      "stateMutability": "view",
      "type": "function"
    },
    {
      "inputs": [],
      "name": "getbalance",
      "outputs": [
        {
          "internalType": "uint256",
          "name": "",
          "type": "uint256"
        }
      ],
      "stateMutability": "nonpayable",
      "type": "function"
    },
    {
      "inputs": [
        {
          "internalType": "address",
          "name": "owner",
          "type": "address"
        },
        {
          "internalType": "address",
          "name": "operator",
          "type": "address"
        }
      ],
      "name": "isApprovedForAll",
      "outputs": [
        {
          "internalType": "bool",
          "name": "",
          "type": "bool"
        }
      ],
      "stateMutability": "view",
      "type": "function"
    },
    {
      "inputs": [],
      "name": "name",
      "outputs": [
        {
          "internalType": "string",
          "name": "",
          "type": "string"
        }
      ],
      "stateMutability": "view",
      "type": "function"
    },
    {
      "inputs": [],
      "name": "owner",
      "outputs": [
        {
          "internalType": "address",
          "name": "",
          "type": "address"
        }
      ],
      "stateMutability": "view",
      "type": "function"
    },
    {
      "inputs": [
        {
          "internalType": "uint256",
          "name": "tokenId",
          "type": "uint256"
        }
      ],
      "name": "ownerOf",
      "outputs": [
        {
          "internalType": "address",
          "name": "",
          "type": "address"
        }
      ],
      "stateMutability": "view",
      "type": "function"
    },
    {
      "inputs": [],
      "name": "rdt",
      "outputs": [
        {
          "internalType": "contract RDTtoken",
          "name": "",
          "type": "address"
        }
      ],
      "stateMutability": "view",
      "type": "function"
    },
    {
      "inputs": [],
      "name": "renounceOwnership",
      "outputs": [],
      "stateMutability": "nonpayable",
      "type": "function"
    },
    {
      "inputs": [
        {
          "internalType": "address",
          "name": "to",
          "type": "address"
        },
        {
          "internalType": "string",
          "name": "uri",
          "type": "string"
        },
        {
          "internalType": "uint256",
          "name": "_price",
          "type": "uint256"
        },
        {
          "internalType": "uint256",
          "name": "_priceForToken",
          "type": "uint256"
        }
      ],
      "name": "safeMint",
      "outputs": [],
      "stateMutability": "nonpayable",
      "type": "function"
    },
    {
      "inputs": [
        {
          "internalType": "address",
          "name": "from",
          "type": "address"
        },
        {
          "internalType": "address",
          "name": "to",
          "type": "address"
        },
        {
          "internalType": "uint256",
          "name": "tokenId",
          "type": "uint256"
        }
      ],
      "name": "safeTransferFrom",
      "outputs": [],
      "stateMutability": "nonpayable",
      "type": "function"
    },
    {
      "inputs": [
        {
          "internalType": "address",
          "name": "from",
          "type": "address"
        },
        {
          "internalType": "address",
          "name": "to",
          "type": "address"
        },
        {
          "internalType": "uint256",
          "name": "tokenId",
          "type": "uint256"
        },
        {
          "internalType": "bytes",
          "name": "data",
          "type": "bytes"
        }
      ],
      "name": "safeTransferFrom",
      "outputs": [],
      "stateMutability": "nonpayable",
      "type": "function"
    },
    {
      "inputs": [
        {
          "internalType": "address",
          "name": "operator",
          "type": "address"
        },
        {
          "internalType": "bool",
          "name": "approved",
          "type": "bool"
        }
      ],
      "name": "setApprovalForAll",
      "outputs": [],
      "stateMutability": "nonpayable",
      "type": "function"
    },
    {
      "inputs": [
        {
          "internalType": "bytes4",
          "name": "interfaceId",
          "type": "bytes4"
        }
      ],
      "name": "supportsInterface",
      "outputs": [
        {
          "internalType": "bool",
          "name": "",
          "type": "bool"
        }
      ],
      "stateMutability": "view",
      "type": "function"
    },
    {
      "inputs": [],
      "name": "symbol",
      "outputs": [
        {
          "internalType": "string",
          "name": "",
          "type": "string"
        }
      ],
      "stateMutability": "view",
      "type": "function"
    },
    {
      "inputs": [
        {
          "internalType": "uint256",
          "name": "tokenId",
          "type": "uint256"
        }
      ],
      "name": "tokenURI",
      "outputs": [
        {
          "internalType": "string",
          "name": "",
          "type": "string"
        }
      ],
      "stateMutability": "view",
      "type": "function"
    },
    {
      "inputs": [
        {
          "internalType": "address",
          "name": "from",
          "type": "address"
        },
        {
          "internalType": "address",
          "name": "to",
          "type": "address"
        },
        {
          "internalType": "uint256",
          "name": "tokenId",
          "type": "uint256"
        }
      ],
      "name": "transferFrom",
      "outputs": [],
      "stateMutability": "nonpayable",
      "type": "function"
    },
    {
      "inputs": [
        {
          "internalType": "address",
          "name": "newOwner",
          "type": "address"
        }
      ],
      "name": "transferOwnership",
      "outputs": [],
      "stateMutability": "nonpayable",
      "type": "function"
    },
    {
      "stateMutability": "payable",
      "type": "receive"
    }
  ],
  "bytecode": "0x60806040523480156200001157600080fd5b5060405162003c4238038062003c42833981810160405281019062000037919062000269565b6040518060400160405280600781526020017f526561644e6674000000000000000000000000000000000000000000000000008152506040518060400160405280600381526020017f4d544b00000000000000000000000000000000000000000000000000000000008152508160009081620000b4919062000515565b508060019081620000c6919062000515565b505050620000e9620000dd6200013160201b60201c565b6200013960201b60201c565b80600b60006101000a81548173ffffffffffffffffffffffffffffffffffffffff021916908373ffffffffffffffffffffffffffffffffffffffff16021790555050620005fc565b600033905090565b6000600760009054906101000a900473ffffffffffffffffffffffffffffffffffffffff16905081600760006101000a81548173ffffffffffffffffffffffffffffffffffffffff021916908373ffffffffffffffffffffffffffffffffffffffff1602179055508173ffffffffffffffffffffffffffffffffffffffff168173ffffffffffffffffffffffffffffffffffffffff167f8be0079c531659141344cd1fd0a4f28419497f9722a3daafe3b4186f6b6457e060405160405180910390a35050565b600080fd5b600073ffffffffffffffffffffffffffffffffffffffff82169050919050565b6000620002318262000204565b9050919050565b620002438162000224565b81146200024f57600080fd5b50565b600081519050620002638162000238565b92915050565b600060208284031215620002825762000281620001ff565b5b6000620002928482850162000252565b91505092915050565b600081519050919050565b7f4e487b7100000000000000000000000000000000000000000000000000000000600052604160045260246000fd5b7f4e487b7100000000000000000000000000000000000000000000000000000000600052602260045260246000fd5b600060028204905060018216806200031d57607f821691505b602082108103620003335762000332620002d5565b5b50919050565b60008190508160005260206000209050919050565b60006020601f8301049050919050565b600082821b905092915050565b6000600883026200039d7fffffffffffffffffffffffffffffffffffffffffffffffffffffffffffffffff826200035e565b620003a986836200035e565b95508019841693508086168417925050509392505050565b6000819050919050565b6000819050919050565b6000620003f6620003f0620003ea84620003c1565b620003cb565b620003c1565b9050919050565b6000819050919050565b6200041283620003d5565b6200042a6200042182620003fd565b8484546200036b565b825550505050565b600090565b6200044162000432565b6200044e81848462000407565b505050565b5b8181101562000476576200046a60008262000437565b60018101905062000454565b5050565b601f821115620004c5576200048f8162000339565b6200049a846200034e565b81016020851015620004aa578190505b620004c2620004b9856200034e565b83018262000453565b50505b505050565b600082821c905092915050565b6000620004ea60001984600802620004ca565b1980831691505092915050565b6000620005058383620004d7565b9150826002028217905092915050565b62000520826200029b565b67ffffffffffffffff8111156200053c576200053b620002a6565b5b62000548825462000304565b620005558282856200047a565b600060209050601f8311600181146200058d576000841562000578578287015190505b620005848582620004f7565b865550620005f4565b601f1984166200059d8662000339565b60005b82811015620005c757848901518255600182019150602085019450602081019050620005a0565b86831015620005e75784890151620005e3601f891682620004d7565b8355505b6001600288020188555050505b505050505050565b613636806200060c6000396000f3fe6080604052600436106101395760003560e01c806370a08231116100ab578063b88d4fde1161006f578063b88d4fde14610410578063c87b56dd14610439578063d5ce338914610476578063e985e9c5146104a1578063f2fde38b146104de578063fbd9ccfe1461050757610140565b806370a082311461033d578063715018a61461037a5780638da5cb5b1461039157806395d89b41146103bc578063a22cb465146103e757610140565b80632923ce11116100fd5780632923ce111461023c57806342842e0e146102655780634d9b3d5d1461028e5780634ddf4f8f146102b95780634e2dadf5146102d55780636352211e1461030057610140565b806301ffc9a71461014557806306fdde0314610182578063081812fc146101ad578063095ea7b3146101ea57806323b872dd1461021357610140565b3661014057005b600080fd5b34801561015157600080fd5b5061016c600480360381019061016791906122b7565b610530565b60405161017991906122ff565b60405180910390f35b34801561018e57600080fd5b50610197610612565b6040516101a491906123aa565b60405180910390f35b3480156101b957600080fd5b506101d460048036038101906101cf9190612402565b6106a4565b6040516101e19190612470565b60405180910390f35b3480156101f657600080fd5b50610211600480360381019061020c91906124b7565b6106ea565b005b34801561021f57600080fd5b5061023a600480360381019061023591906124f7565b610801565b005b34801561024857600080fd5b50610263600480360381019061025e919061267f565b610861565b005b34801561027157600080fd5b5061028c600480360381019061028791906124f7565b6108d6565b005b34801561029a57600080fd5b506102a36108f6565b6040516102b09190612711565b60405180910390f35b6102d360048036038101906102ce91906124b7565b610a74565b005b3480156102e157600080fd5b506102ea610b2d565b6040516102f7919061278b565b60405180910390f35b34801561030c57600080fd5b5061032760048036038101906103229190612402565b610b53565b6040516103349190612470565b60405180910390f35b34801561034957600080fd5b50610364600480360381019061035f91906127a6565b610bd9565b6040516103719190612711565b60405180910390f35b34801561038657600080fd5b5061038f610c90565b005b34801561039d57600080fd5b506103a6610ca4565b6040516103b39190612470565b60405180910390f35b3480156103c857600080fd5b506103d1610cce565b6040516103de91906123aa565b60405180910390f35b3480156103f357600080fd5b5061040e600480360381019061040991906127ff565b610d60565b005b34801561041c57600080fd5b50610437600480360381019061043291906128e0565b610d76565b005b34801561044557600080fd5b50610460600480360381019061045b9190612402565b610dd8565b60405161046d91906123aa565b60405180910390f35b34801561048257600080fd5b5061048b610dea565b6040516104989190612470565b60405180910390f35b3480156104ad57600080fd5b506104c860048036038101906104c39190612963565b610e10565b6040516104d591906122ff565b60405180910390f35b3480156104ea57600080fd5b50610505600480360381019061050091906127a6565b610ea4565b005b34801561051357600080fd5b5061052e600480360381019061052991906124b7565b610f27565b005b60007f80ac58cd000000000000000000000000000000000000000000000000000000007bffffffffffffffffffffffffffffffffffffffffffffffffffffffff1916827bffffffffffffffffffffffffffffffffffffffffffffffffffffffff191614806105fb57507f5b5e139f000000000000000000000000000000000000000000000000000000007bffffffffffffffffffffffffffffffffffffffffffffffffffffffff1916827bffffffffffffffffffffffffffffffffffffffffffffffffffffffff1916145b8061060b575061060a8261100e565b5b9050919050565b606060008054610621906129d2565b80601f016020809104026020016040519081016040528092919081815260200182805461064d906129d2565b801561069a5780601f1061066f5761010080835404028352916020019161069a565b820191906000526020600020905b81548152906001019060200180831161067d57829003601f168201915b5050505050905090565b60006106af82611078565b6004600083815260200190815260200160002060009054906101000a900473ffffffffffffffffffffffffffffffffffffffff169050919050565b60006106f582610b53565b90508073ffffffffffffffffffffffffffffffffffffffff168373ffffffffffffffffffffffffffffffffffffffff1603610765576040517f08c379a000000000000000000000000000000000000000000000000000000000815260040161075c90612a75565b60405180910390fd5b8073ffffffffffffffffffffffffffffffffffffffff166107846110c3565b73ffffffffffffffffffffffffffffffffffffffff1614806107b357506107b2816107ad6110c3565b610e10565b5b6107f2576040517f08c379a00000000000000000000000000000000000000000000000000000000081526004016107e990612b07565b60405180910390fd5b6107fc83836110cb565b505050565b61081261080c6110c3565b82611184565b610851576040517f08c379a000000000000000000000000000000000000000000000000000000000815260040161084890612b99565b60405180910390fd5b61085c838383611219565b505050565b610869611512565b6000610875600c611590565b905082600960008381526020019081526020016000208190555081600a6000838152602001908152602001600020819055506108b1600c61159e565b6108bb85826115b4565b6108c581856115d2565b6108ce81610dd8565b505050505050565b6108f183838360405180602001604052806000815250610d76565b505050565b6000803390507f47bb89f0fc234008e53c79bc3e3dab90e27502d1380a4b3cc35038d57fa03d2a600b60009054906101000a900473ffffffffffffffffffffffffffffffffffffffff1673ffffffffffffffffffffffffffffffffffffffff166368116177836040518263ffffffff1660e01b81526004016109789190612470565b6020604051808303816000875af1158015610997573d6000803e3d6000fd5b505050506040513d601f19601f820116820180604052508101906109bb9190612bce565b6040516109c89190612711565b60405180910390a1600b60009054906101000a900473ffffffffffffffffffffffffffffffffffffffff1673ffffffffffffffffffffffffffffffffffffffff166368116177826040518263ffffffff1660e01b8152600401610a2b9190612470565b6020604051808303816000875af1158015610a4a573d6000803e3d6000fd5b505050506040513d601f19601f82011682018060405250810190610a6e9190612bce565b91505090565b6000600960008381526020019081526020016000205411610a9457600080fd5b6009600082815260200190815260200160002054341015610ab457600080fd5b610abc610ca4565b600860006101000a81548173ffffffffffffffffffffffffffffffffffffffff021916908373ffffffffffffffffffffffffffffffffffffffff160217905550610b29600860009054906101000a900473ffffffffffffffffffffffffffffffffffffffff168383611219565b5050565b600b60009054906101000a900473ffffffffffffffffffffffffffffffffffffffff1681565b600080610b5f8361163f565b9050600073ffffffffffffffffffffffffffffffffffffffff168173ffffffffffffffffffffffffffffffffffffffff1603610bd0576040517f08c379a0000000000000000000000000000000000000000000000000000000008152600401610bc790612c47565b60405180910390fd5b80915050919050565b60008073ffffffffffffffffffffffffffffffffffffffff168273ffffffffffffffffffffffffffffffffffffffff1603610c49576040517f08c379a0000000000000000000000000000000000000000000000000000000008152600401610c4090612cd9565b60405180910390fd5b600360008373ffffffffffffffffffffffffffffffffffffffff1673ffffffffffffffffffffffffffffffffffffffff168152602001908152602001600020549050919050565b610c98611512565b610ca2600061167c565b565b6000600760009054906101000a900473ffffffffffffffffffffffffffffffffffffffff16905090565b606060018054610cdd906129d2565b80601f0160208091040260200160405190810160405280929190818152602001828054610d09906129d2565b8015610d565780601f10610d2b57610100808354040283529160200191610d56565b820191906000526020600020905b815481529060010190602001808311610d3957829003601f168201915b5050505050905090565b610d72610d6b6110c3565b8383611742565b5050565b610d87610d816110c3565b83611184565b610dc6576040517f08c379a0000000000000000000000000000000000000000000000000000000008152600401610dbd90612b99565b60405180910390fd5b610dd2848484846118ae565b50505050565b6060610de38261190a565b9050919050565b600860009054906101000a900473ffffffffffffffffffffffffffffffffffffffff1681565b6000600560008473ffffffffffffffffffffffffffffffffffffffff1673ffffffffffffffffffffffffffffffffffffffff16815260200190815260200160002060008373ffffffffffffffffffffffffffffffffffffffff1673ffffffffffffffffffffffffffffffffffffffff16815260200190815260200160002060009054906101000a900460ff16905092915050565b610eac611512565b600073ffffffffffffffffffffffffffffffffffffffff168173ffffffffffffffffffffffffffffffffffffffff1603610f1b576040517f08c379a0000000000000000000000000000000000000000000000000000000008152600401610f1290612d6b565b60405180910390fd5b610f248161167c565b50565b6000600a60008381526020019081526020016000205411610f4757600080fd5b600a600082815260200190815260200160002054610f636108f6565b1015610f6e57600080fd5b6009600082815260200190815260200160002054610f8a6108f6565b610f949190612dba565b50610f9d610ca4565b600860006101000a81548173ffffffffffffffffffffffffffffffffffffffff021916908373ffffffffffffffffffffffffffffffffffffffff16021790555061100a600860009054906101000a900473ffffffffffffffffffffffffffffffffffffffff168383611219565b5050565b60007f01ffc9a7000000000000000000000000000000000000000000000000000000007bffffffffffffffffffffffffffffffffffffffffffffffffffffffff1916827bffffffffffffffffffffffffffffffffffffffffffffffffffffffff1916149050919050565b61108181611a1c565b6110c0576040517f08c379a00000000000000000000000000000000000000000000000000000000081526004016110b790612c47565b60405180910390fd5b50565b600033905090565b816004600083815260200190815260200160002060006101000a81548173ffffffffffffffffffffffffffffffffffffffff021916908373ffffffffffffffffffffffffffffffffffffffff160217905550808273ffffffffffffffffffffffffffffffffffffffff1661113e83610b53565b73ffffffffffffffffffffffffffffffffffffffff167f8c5be1e5ebec7d5bd14f71427d1e84f3dd0314c0f7b2291e5b200ac8c7c3b92560405160405180910390a45050565b60008061119083610b53565b90508073ffffffffffffffffffffffffffffffffffffffff168473ffffffffffffffffffffffffffffffffffffffff1614806111d257506111d18185610e10565b5b8061121057508373ffffffffffffffffffffffffffffffffffffffff166111f8846106a4565b73ffffffffffffffffffffffffffffffffffffffff16145b91505092915050565b8273ffffffffffffffffffffffffffffffffffffffff1661123982610b53565b73ffffffffffffffffffffffffffffffffffffffff161461128f576040517f08c379a000000000000000000000000000000000000000000000000000000000815260040161128690612e60565b60405180910390fd5b600073ffffffffffffffffffffffffffffffffffffffff168273ffffffffffffffffffffffffffffffffffffffff16036112fe576040517f08c379a00000000000000000000000000000000000000000000000000000000081526004016112f590612ef2565b60405180910390fd5b61130b8383836001611a5d565b8273ffffffffffffffffffffffffffffffffffffffff1661132b82610b53565b73ffffffffffffffffffffffffffffffffffffffff1614611381576040517f08c379a000000000000000000000000000000000000000000000000000000000815260040161137890612e60565b60405180910390fd5b6004600082815260200190815260200160002060006101000a81549073ffffffffffffffffffffffffffffffffffffffff02191690556001600360008573ffffffffffffffffffffffffffffffffffffffff1673ffffffffffffffffffffffffffffffffffffffff168152602001908152602001600020600082825403925050819055506001600360008473ffffffffffffffffffffffffffffffffffffffff1673ffffffffffffffffffffffffffffffffffffffff16815260200190815260200160002060008282540192505081905550816002600083815260200190815260200160002060006101000a81548173ffffffffffffffffffffffffffffffffffffffff021916908373ffffffffffffffffffffffffffffffffffffffff160217905550808273ffffffffffffffffffffffffffffffffffffffff168473ffffffffffffffffffffffffffffffffffffffff167fddf252ad1be2c89b69c2b068fc378daa952ba7f163c4a11628f55a4df523b3ef60405160405180910390a461150d8383836001611b83565b505050565b61151a6110c3565b73ffffffffffffffffffffffffffffffffffffffff16611538610ca4565b73ffffffffffffffffffffffffffffffffffffffff161461158e576040517f08c379a000000000000000000000000000000000000000000000000000000000815260040161158590612f5e565b60405180910390fd5b565b600081600001549050919050565b6001816000016000828254019250508190555050565b6115ce828260405180602001604052806000815250611b89565b5050565b6115db82611a1c565b61161a576040517f08c379a000000000000000000000000000000000000000000000000000000000815260040161161190612ff0565b60405180910390fd5b8060066000848152602001908152602001600020908161163a91906131b2565b505050565b60006002600083815260200190815260200160002060009054906101000a900473ffffffffffffffffffffffffffffffffffffffff169050919050565b6000600760009054906101000a900473ffffffffffffffffffffffffffffffffffffffff16905081600760006101000a81548173ffffffffffffffffffffffffffffffffffffffff021916908373ffffffffffffffffffffffffffffffffffffffff1602179055508173ffffffffffffffffffffffffffffffffffffffff168173ffffffffffffffffffffffffffffffffffffffff167f8be0079c531659141344cd1fd0a4f28419497f9722a3daafe3b4186f6b6457e060405160405180910390a35050565b8173ffffffffffffffffffffffffffffffffffffffff168373ffffffffffffffffffffffffffffffffffffffff16036117b0576040517f08c379a00000000000000000000000000000000000000000000000000000000081526004016117a7906132d0565b60405180910390fd5b80600560008573ffffffffffffffffffffffffffffffffffffffff1673ffffffffffffffffffffffffffffffffffffffff16815260200190815260200160002060008473ffffffffffffffffffffffffffffffffffffffff1673ffffffffffffffffffffffffffffffffffffffff16815260200190815260200160002060006101000a81548160ff0219169083151502179055508173ffffffffffffffffffffffffffffffffffffffff168373ffffffffffffffffffffffffffffffffffffffff167f17307eab39ab6107e8899845ad3d59bd9653f200f220920489ca2b5937696c31836040516118a191906122ff565b60405180910390a3505050565b6118b9848484611219565b6118c584848484611be4565b611904576040517f08c379a00000000000000000000000000000000000000000000000000000000081526004016118fb90613362565b60405180910390fd5b50505050565b606061191582611078565b6000600660008481526020019081526020016000208054611935906129d2565b80601f0160208091040260200160405190810160405280929190818152602001828054611961906129d2565b80156119ae5780601f10611983576101008083540402835291602001916119ae565b820191906000526020600020905b81548152906001019060200180831161199157829003601f168201915b5050505050905060006119bf611d6b565b905060008151036119d4578192505050611a17565b600082511115611a095780826040516020016119f19291906133be565b60405160208183030381529060405292505050611a17565b611a1284611d82565b925050505b919050565b60008073ffffffffffffffffffffffffffffffffffffffff16611a3e8361163f565b73ffffffffffffffffffffffffffffffffffffffff1614159050919050565b6001811115611b7d57600073ffffffffffffffffffffffffffffffffffffffff168473ffffffffffffffffffffffffffffffffffffffff1614611af15780600360008673ffffffffffffffffffffffffffffffffffffffff1673ffffffffffffffffffffffffffffffffffffffff1681526020019081526020016000206000828254611ae99190612dba565b925050819055505b600073ffffffffffffffffffffffffffffffffffffffff168373ffffffffffffffffffffffffffffffffffffffff1614611b7c5780600360008573ffffffffffffffffffffffffffffffffffffffff1673ffffffffffffffffffffffffffffffffffffffff1681526020019081526020016000206000828254611b7491906133e2565b925050819055505b5b50505050565b50505050565b611b938383611dea565b611ba06000848484611be4565b611bdf576040517f08c379a0000000000000000000000000000000000000000000000000000000008152600401611bd690613362565b60405180910390fd5b505050565b6000611c058473ffffffffffffffffffffffffffffffffffffffff16612007565b15611d5e578373ffffffffffffffffffffffffffffffffffffffff1663150b7a02611c2e6110c3565b8786866040518563ffffffff1660e01b8152600401611c50949392919061346b565b6020604051808303816000875af1925050508015611c8c57506040513d601f19601f82011682018060405250810190611c8991906134cc565b60015b611d0e573d8060008114611cbc576040519150601f19603f3d011682016040523d82523d6000602084013e611cc1565b606091505b506000815103611d06576040517f08c379a0000000000000000000000000000000000000000000000000000000008152600401611cfd90613362565b60405180910390fd5b805181602001fd5b63150b7a0260e01b7bffffffffffffffffffffffffffffffffffffffffffffffffffffffff1916817bffffffffffffffffffffffffffffffffffffffffffffffffffffffff191614915050611d63565b600190505b949350505050565b606060405180602001604052806000815250905090565b6060611d8d82611078565b6000611d97611d6b565b90506000815111611db75760405180602001604052806000815250611de2565b80611dc18461202a565b604051602001611dd29291906133be565b6040516020818303038152906040525b915050919050565b600073ffffffffffffffffffffffffffffffffffffffff168273ffffffffffffffffffffffffffffffffffffffff1603611e59576040517f08c379a0000000000000000000000000000000000000000000000000000000008152600401611e5090613545565b60405180910390fd5b611e6281611a1c565b15611ea2576040517f08c379a0000000000000000000000000000000000000000000000000000000008152600401611e99906135b1565b60405180910390fd5b611eb0600083836001611a5d565b611eb981611a1c565b15611ef9576040517f08c379a0000000000000000000000000000000000000000000000000000000008152600401611ef0906135b1565b60405180910390fd5b6001600360008473ffffffffffffffffffffffffffffffffffffffff1673ffffffffffffffffffffffffffffffffffffffff16815260200190815260200160002060008282540192505081905550816002600083815260200190815260200160002060006101000a81548173ffffffffffffffffffffffffffffffffffffffff021916908373ffffffffffffffffffffffffffffffffffffffff160217905550808273ffffffffffffffffffffffffffffffffffffffff16600073ffffffffffffffffffffffffffffffffffffffff167fddf252ad1be2c89b69c2b068fc378daa952ba7f163c4a11628f55a4df523b3ef60405160405180910390a4612003600083836001611b83565b5050565b6000808273ffffffffffffffffffffffffffffffffffffffff163b119050919050565b606060006001612039846120f8565b01905060008167ffffffffffffffff81111561205857612057612554565b5b6040519080825280601f01601f19166020018201604052801561208a5781602001600182028036833780820191505090505b509050600082602001820190505b6001156120ed578080600190039150507f3031323334353637383961626364656600000000000000000000000000000000600a86061a8153600a85816120e1576120e06135d1565b5b04945060008503612098575b819350505050919050565b600080600090507a184f03e93ff9f4daa797ed6e38ed64bf6a1f0100000000000000008310612156577a184f03e93ff9f4daa797ed6e38ed64bf6a1f010000000000000000838161214c5761214b6135d1565b5b0492506040810190505b6d04ee2d6d415b85acef81000000008310612193576d04ee2d6d415b85acef81000000008381612189576121886135d1565b5b0492506020810190505b662386f26fc1000083106121c257662386f26fc1000083816121b8576121b76135d1565b5b0492506010810190505b6305f5e10083106121eb576305f5e10083816121e1576121e06135d1565b5b0492506008810190505b6127108310612210576127108381612206576122056135d1565b5b0492506004810190505b606483106122335760648381612229576122286135d1565b5b0492506002810190505b600a8310612242576001810190505b80915050919050565b6000604051905090565b600080fd5b600080fd5b60007fffffffff0000000000000000000000000000000000000000000000000000000082169050919050565b6122948161225f565b811461229f57600080fd5b50565b6000813590506122b18161228b565b92915050565b6000602082840312156122cd576122cc612255565b5b60006122db848285016122a2565b91505092915050565b60008115159050919050565b6122f9816122e4565b82525050565b600060208201905061231460008301846122f0565b92915050565b600081519050919050565b600082825260208201905092915050565b60005b83811015612354578082015181840152602081019050612339565b60008484015250505050565b6000601f19601f8301169050919050565b600061237c8261231a565b6123868185612325565b9350612396818560208601612336565b61239f81612360565b840191505092915050565b600060208201905081810360008301526123c48184612371565b905092915050565b6000819050919050565b6123df816123cc565b81146123ea57600080fd5b50565b6000813590506123fc816123d6565b92915050565b60006020828403121561241857612417612255565b5b6000612426848285016123ed565b91505092915050565b600073ffffffffffffffffffffffffffffffffffffffff82169050919050565b600061245a8261242f565b9050919050565b61246a8161244f565b82525050565b60006020820190506124856000830184612461565b92915050565b6124948161244f565b811461249f57600080fd5b50565b6000813590506124b18161248b565b92915050565b600080604083850312156124ce576124cd612255565b5b60006124dc858286016124a2565b92505060206124ed858286016123ed565b9150509250929050565b6000806000606084860312156125105761250f612255565b5b600061251e868287016124a2565b935050602061252f868287016124a2565b9250506040612540868287016123ed565b9150509250925092565b600080fd5b600080fd5b7f4e487b7100000000000000000000000000000000000000000000000000000000600052604160045260246000fd5b61258c82612360565b810181811067ffffffffffffffff821117156125ab576125aa612554565b5b80604052505050565b60006125be61224b565b90506125ca8282612583565b919050565b600067ffffffffffffffff8211156125ea576125e9612554565b5b6125f382612360565b9050602081019050919050565b82818337600083830152505050565b600061262261261d846125cf565b6125b4565b90508281526020810184848401111561263e5761263d61254f565b5b612649848285612600565b509392505050565b600082601f8301126126665761266561254a565b5b813561267684826020860161260f565b91505092915050565b6000806000806080858703121561269957612698612255565b5b60006126a7878288016124a2565b945050602085013567ffffffffffffffff8111156126c8576126c761225a565b5b6126d487828801612651565b93505060406126e5878288016123ed565b92505060606126f6878288016123ed565b91505092959194509250565b61270b816123cc565b82525050565b60006020820190506127266000830184612702565b92915050565b6000819050919050565b600061275161274c6127478461242f565b61272c565b61242f565b9050919050565b600061276382612736565b9050919050565b600061277582612758565b9050919050565b6127858161276a565b82525050565b60006020820190506127a0600083018461277c565b92915050565b6000602082840312156127bc576127bb612255565b5b60006127ca848285016124a2565b91505092915050565b6127dc816122e4565b81146127e757600080fd5b50565b6000813590506127f9816127d3565b92915050565b6000806040838503121561281657612815612255565b5b6000612824858286016124a2565b9250506020612835858286016127ea565b9150509250929050565b600067ffffffffffffffff82111561285a57612859612554565b5b61286382612360565b9050602081019050919050565b600061288361287e8461283f565b6125b4565b90508281526020810184848401111561289f5761289e61254f565b5b6128aa848285612600565b509392505050565b600082601f8301126128c7576128c661254a565b5b81356128d7848260208601612870565b91505092915050565b600080600080608085870312156128fa576128f9612255565b5b6000612908878288016124a2565b9450506020612919878288016124a2565b935050604061292a878288016123ed565b925050606085013567ffffffffffffffff81111561294b5761294a61225a565b5b612957878288016128b2565b91505092959194509250565b6000806040838503121561297a57612979612255565b5b6000612988858286016124a2565b9250506020612999858286016124a2565b9150509250929050565b7f4e487b7100000000000000000000000000000000000000000000000000000000600052602260045260246000fd5b600060028204905060018216806129ea57607f821691505b6020821081036129fd576129fc6129a3565b5b50919050565b7f4552433732313a20617070726f76616c20746f2063757272656e74206f776e6560008201527f7200000000000000000000000000000000000000000000000000000000000000602082015250565b6000612a5f602183612325565b9150612a6a82612a03565b604082019050919050565b60006020820190508181036000830152612a8e81612a52565b9050919050565b7f4552433732313a20617070726f76652063616c6c6572206973206e6f7420746f60008201527f6b656e206f776e6572206f7220617070726f76656420666f7220616c6c000000602082015250565b6000612af1603d83612325565b9150612afc82612a95565b604082019050919050565b60006020820190508181036000830152612b2081612ae4565b9050919050565b7f4552433732313a2063616c6c6572206973206e6f7420746f6b656e206f776e6560008201527f72206f7220617070726f76656400000000000000000000000000000000000000602082015250565b6000612b83602d83612325565b9150612b8e82612b27565b604082019050919050565b60006020820190508181036000830152612bb281612b76565b9050919050565b600081519050612bc8816123d6565b92915050565b600060208284031215612be457612be3612255565b5b6000612bf284828501612bb9565b91505092915050565b7f4552433732313a20696e76616c696420746f6b656e2049440000000000000000600082015250565b6000612c31601883612325565b9150612c3c82612bfb565b602082019050919050565b60006020820190508181036000830152612c6081612c24565b9050919050565b7f4552433732313a2061646472657373207a65726f206973206e6f74206120766160008201527f6c6964206f776e65720000000000000000000000000000000000000000000000602082015250565b6000612cc3602983612325565b9150612cce82612c67565b604082019050919050565b60006020820190508181036000830152612cf281612cb6565b9050919050565b7f4f776e61626c653a206e6577206f776e657220697320746865207a65726f206160008201527f6464726573730000000000000000000000000000000000000000000000000000602082015250565b6000612d55602683612325565b9150612d6082612cf9565b604082019050919050565b60006020820190508181036000830152612d8481612d48565b9050919050565b7f4e487b7100000000000000000000000000000000000000000000000000000000600052601160045260246000fd5b6000612dc5826123cc565b9150612dd0836123cc565b9250828203905081811115612de857612de7612d8b565b5b92915050565b7f4552433732313a207472616e736665722066726f6d20696e636f72726563742060008201527f6f776e6572000000000000000000000000000000000000000000000000000000602082015250565b6000612e4a602583612325565b9150612e5582612dee565b604082019050919050565b60006020820190508181036000830152612e7981612e3d565b9050919050565b7f4552433732313a207472616e7366657220746f20746865207a65726f2061646460008201527f7265737300000000000000000000000000000000000000000000000000000000602082015250565b6000612edc602483612325565b9150612ee782612e80565b604082019050919050565b60006020820190508181036000830152612f0b81612ecf565b9050919050565b7f4f776e61626c653a2063616c6c6572206973206e6f7420746865206f776e6572600082015250565b6000612f48602083612325565b9150612f5382612f12565b602082019050919050565b60006020820190508181036000830152612f7781612f3b565b9050919050565b7f45524337323155524953746f726167653a2055524920736574206f66206e6f6e60008201527f6578697374656e7420746f6b656e000000000000000000000000000000000000602082015250565b6000612fda602e83612325565b9150612fe582612f7e565b604082019050919050565b6000602082019050818103600083015261300981612fcd565b9050919050565b60008190508160005260206000209050919050565b60006020601f8301049050919050565b600082821b905092915050565b6000600883026130727fffffffffffffffffffffffffffffffffffffffffffffffffffffffffffffffff82613035565b61307c8683613035565b95508019841693508086168417925050509392505050565b60006130af6130aa6130a5846123cc565b61272c565b6123cc565b9050919050565b6000819050919050565b6130c983613094565b6130dd6130d5826130b6565b848454613042565b825550505050565b600090565b6130f26130e5565b6130fd8184846130c0565b505050565b5b81811015613121576131166000826130ea565b600181019050613103565b5050565b601f8211156131665761313781613010565b61314084613025565b8101602085101561314f578190505b61316361315b85613025565b830182613102565b50505b505050565b600082821c905092915050565b60006131896000198460080261316b565b1980831691505092915050565b60006131a28383613178565b9150826002028217905092915050565b6131bb8261231a565b67ffffffffffffffff8111156131d4576131d3612554565b5b6131de82546129d2565b6131e9828285613125565b600060209050601f83116001811461321c576000841561320a578287015190505b6132148582613196565b86555061327c565b601f19841661322a86613010565b60005b828110156132525784890151825560018201915060208501945060208101905061322d565b8683101561326f578489015161326b601f891682613178565b8355505b6001600288020188555050505b505050505050565b7f4552433732313a20617070726f766520746f2063616c6c657200000000000000600082015250565b60006132ba601983612325565b91506132c582613284565b602082019050919050565b600060208201905081810360008301526132e9816132ad565b9050919050565b7f4552433732313a207472616e7366657220746f206e6f6e20455243373231526560008201527f63656976657220696d706c656d656e7465720000000000000000000000000000602082015250565b600061334c603283612325565b9150613357826132f0565b604082019050919050565b6000602082019050818103600083015261337b8161333f565b9050919050565b600081905092915050565b60006133988261231a565b6133a28185613382565b93506133b2818560208601612336565b80840191505092915050565b60006133ca828561338d565b91506133d6828461338d565b91508190509392505050565b60006133ed826123cc565b91506133f8836123cc565b92508282019050808211156134105761340f612d8b565b5b92915050565b600081519050919050565b600082825260208201905092915050565b600061343d82613416565b6134478185613421565b9350613457818560208601612336565b61346081612360565b840191505092915050565b60006080820190506134806000830187612461565b61348d6020830186612461565b61349a6040830185612702565b81810360608301526134ac8184613432565b905095945050505050565b6000815190506134c68161228b565b92915050565b6000602082840312156134e2576134e1612255565b5b60006134f0848285016134b7565b91505092915050565b7f4552433732313a206d696e7420746f20746865207a65726f2061646472657373600082015250565b600061352f602083612325565b915061353a826134f9565b602082019050919050565b6000602082019050818103600083015261355e81613522565b9050919050565b7f4552433732313a20746f6b656e20616c7265616479206d696e74656400000000600082015250565b600061359b601c83612325565b91506135a682613565565b602082019050919050565b600060208201905081810360008301526135ca8161358e565b9050919050565b7f4e487b7100000000000000000000000000000000000000000000000000000000600052601260045260246000fdfea264697066735822122047d4ab80032cdbfbfa814ad2017bbea371a14f475bc8ebe6e48777e9eece5f5964736f6c63430008110033",
  "linkReferences": {},
  "deployedLinkReferences": {}
}